{
  "contractName": "Habfem",
  "abi": [
    {
      "inputs": [
        {
          "internalType": "uint256",
          "name": "_age",
          "type": "uint256"
        }
      ],
      "payable": false,
      "stateMutability": "nonpayable",
      "type": "constructor"
    },
    {
      "constant": false,
      "inputs": [
        {
          "internalType": "uint256",
          "name": "_age",
          "type": "uint256"
        }
      ],
      "name": "setAge",
      "outputs": [],
      "payable": false,
      "stateMutability": "nonpayable",
      "type": "function"
    },
    {
      "constant": true,
      "inputs": [],
      "name": "getAge",
      "outputs": [
        {
          "internalType": "uint256",
          "name": "",
          "type": "uint256"
        }
      ],
      "payable": false,
      "stateMutability": "view",
      "type": "function"
    }
  ],
  "bytecode": "0x608060405234801561001057600080fd5b506040516100f13803806100f18339818101604052602081101561003357600080fd5b505160005560ab806100466000396000f3fe6080604052348015600f57600080fd5b506004361060325760003560e01c8063967e6e65146037578063d5dcf12714604f575b600080fd5b603d606b565b60408051918252519081900360200190f35b606960048036036020811015606357600080fd5b50356071565b005b60005490565b60005556fea265627a7a723158205fee811a29a690dc136f20498171920c369fddab4a1275383e32aa0c72099fcd64736f6c63430005100032",
  "source": "// SPDX-License-Identifier: MIT\r\npragma solidity >=0.4.22 <0.7.0;\r\n\r\ncontract Habfem {\r\n    uint age;\r\n\r\n    constructor(uint _age) public {\r\n        age = _age;\r\n    }\r\n\r\n    function setAge(uint _age) public {\r\n        age = _age;\r\n    }\r\n\r\n    function getAge() public view returns (uint) {\r\n        return age;\r\n    }\r\n}\r\n",
  "sourcePath": "C:\\Users\\habee\\3D Objects\\WEB3\\Truffle-Sample\\contracts\\Habfem.sol",
  "compiler": {
    "name": "solc",
    "version": "0.5.16+commit.9c3226ce.Emscripten.clang"
  },
  "schemaVersion": "3.4.13",
  "updatedAt": "2023-03-09T10:42:36.574Z",
  "networkType": "ethereum",
  "devdoc": {
    "methods": {}
  },
  "userdoc": {
    "methods": {}
  }
}